:100000000C9455000C9467000C9467000C946700E6
:100010000C9467000C9467000C9467000C946700C4
:100020000C9467000C9467000C9467000C946700B4
:100030000C9467000C9467000C9467000C946700A4
:100040000C9467000C9467000C9467000C94670094
:100050000C946700CA00CD00D000D300D600D900B0
:10006000DC00DF00E200E5009701970197019701AE
:10007000970197019701C70097012101C4009701DB
:100080009701970197011A019701970197014B0179
:1000900097019701970197011701C10009012801F4
:1000A0009701BE0097011001E80011241FBECFE5A3
:1000B000D8E0DEBFCDBF20E0A0E6B0E001C01D92D9
:1000C000A036B207E1F70E9488000C94C2030C949A
:1000D00000009C0140E050E060E472E48FE090E0BA
:1000E0000E949A032150310929B930BD80E88BB9AB
:1000F00088E18AB980B5866880BD80B58F7B80BD78
:1001000080B5877F80BD08955F9BFECF8CB1089539
:100110000E949A010E949E0180E895E20E94690077
:100120008FE08ABB8F9AB89AA798A698A598A498AA
:10013000A3980F2EFEE1BF2EF02D0F2EFCE3CF2E45
:10014000F02D0F2EFAE5DF2EF02D0F2EF8E7EF2E13
:10015000F02D0F2EF6E9FF2EF02D03EC12EDD0EF6F
:10016000CFEF0E94840090E0FC01F097EB32F105A4
:1001700008F0DDC0E65DFF4F0C94BC030E94A201B5
:10018000F0CF0E94A701EDCF0E94AC01EACF0E9400
:10019000B101E7CFCCBFC3BDE4CFDCBFD3BDE1CF5E
:1001A0001CBF13BDDECF0CBF03BDDBCFFCBEF3BC59
:1001B000D8CFECBEE3BCD5CFDCBED3BCD2CFCCBE57
:1001C000C3BCCFCFBCBEB3BCCCCF1CBE13BCC9CF4D
:1001D0009B9909C060E070E084EB92E40E941302F6
:1001E0001CBE13BC02C00E94A2018CB1813409F470
:1001F000B8CF8CB1873509F4B4CF8CB1833509F40D
:10020000B0CF8CB1843409F4ACCF8CB1883501F710
:10021000A8CF60E070E088EC92E40E94D301A1CF07
:1002200060E070E084EB92E40E9413029ACF0E9497
:10023000530297CF60E070E086E993E40E94860263
:1002400090CF60E070E883E194E40E947A0289CF65
:100250000E9453022AEA30E489EF93E021503040B3
:1002600080409040D9F7000060E070E086E993E4B8
:100270000E9486022AEA30E489EF93E02150304060
:1002800080409040D9F7000060E070E883E194E49A
:100290000E947A0266CF9F9B07C09E9B05C09D99D6
:1002A00003C00E94BB012EC09F990BC09E9B09C03A
:1002B0009D9B07C09D9B26C00E94C3019D99FCCFBA
:1002C00021C09F9B0BC09E9909C09D9B07C09D9B11
:1002D00019C00E94CB019D99FCCF14C09F9B07C001
:1002E0009E9905C09D9903C00E94CB010BC09F99A8
:1002F00007C09E9B05C09D9903C00E94C30102C018
:100300000E94BB018CB1813409F42BCF8CB18735AD
:1003100009F427CF8CB1833509F423CF8CB1843411
:1003200009F41FCF8CB1883509F0B5CF1ACF0E94E0
:10033000B60117CF85EF83BFBB9A089585EF85BDC2
:100340008F9A0895D89AD998DB98DA9A0895D89810
:10035000D99ADB9ADA980895D89AD998DB9ADA98DC
:100360000895D898D99ADB98DA9A0895D898D998A8
:10037000DB98DA980895D89AD998DB98DA9A80EDC4
:100380008CBF83BD0895D89AD998DB9ADA9888E70C
:100390008CBF83BD0895D898D99ADB98DA9A88E7FC
:1003A0008CBF83BD08958F929F92AF92BF92CF92E0
:1003B000DF92EF92FF924B015C010E94A20120E0CC
:1003C00030E0A901C501B4010E9495031816A4F0FC
:1003D0001FC02AE939E949ED5FE3C701B6010E9470
:1003E000AF026B017C01A7019601C501B4010E9417
:1003F0009503181624F00CC0C12CD12C760183B3C0
:1004000093B392959170829581709813E2CFEBCF60
:100410000E94B601FF90EF90DF90CF90BF90AF9019
:100420009F908F9008958F929F92AF92BF92CF929C
:10043000DF92EF92FF924B015C0188E78CBF83BD96
:1004400020E030E0A901C501B4010E94950318160F
:10045000FCF4C12CD12C76010E94AC0183B393B380
:100460009295917082958170981751F02DEC3CEC2B
:100470004CE050E4C701B6010E94AF026B017C0161
:10048000A5019401C701B6010E941B03882324F330
:100490000E94B601FF90EF90DF90CF90BF90AF9099
:1004A0009F908F900895CF93DF9386E98CBF83BD93
:1004B000C4E0D0E060E070E086E193E40E94D30104
:1004C0002FE986E891E0215080409040E1F700C09C
:1004D000000060E070E084EB92E40E941302219738
:1004E00049F7DF91CF9108951CBE20EF23BD0E94F4
:1004F000D30108951CBE22ED23BD0E94D3010895AF
:1005000013BC20EF2CBF0E94D3010895CF92DF923D
:10051000EF92FF92CF936B017C01C6E9C3BDCCBFC4
:1005200060E070E086E193E40E94D301C701B60168
:100530000E947402C3BDCCBF60E070E086E193E42A
:100540000E94D30160E070E088EC93E40E94800296
:10055000CF91FF90EF90DF90CF9008955058BB2738
:10056000AA270E94C6020C945B030E944D0338F038
:100570000E94540320F039F49F3F19F426F40C94A0
:100580004A030EF4E095E7FB0C944403E92F0E9424
:100590006C0358F3BA17620773078407950720F0B6
:1005A00079F4A6F50C948E030EF4E0950B2EBA2F79
:1005B000A02D0B01B90190010C01CA01A001112469
:1005C000FF27591B99F0593F50F4503E68F11A1615
:1005D000F040A22F232F342F4427585FF3CF4695A6
:1005E00037952795A795F0405395C9F77EF41F16C8
:1005F000BA0B620B730B840BBAF09150A1F0FF0F92
:10060000BB1F661F771F881FC2F70EC0BA0F621F7D
:10061000731F841F48F4879577956795B795F7956D
:100620009E3F08F0B0CF9395880F08F09927EE0F02
:100630009795879508950E94200308F481E0089516
:10064000990F0008550FAA0BE0E8FEEF16161706E3
:10065000E807F907C0F012161306E407F50798F04B
:10066000621B730B840B950B39F40A2661F0232B64
:10067000242B252B21F408950A2609F4A140A695E0
:100680008FEF811D811D089597F99F6780E870E0C5
:1006900060E008959FEF80EC089500240A941616F8
:1006A000170618060906089500240A941216130660
:1006B000140605060895092E0394000C11F48823EE
:1006C00052F0BB0F40F4BF2B11F460FF04C06F5F0A
:1006D0007F4F8F4F9F4F089557FD9058440F551FE0
:1006E00059F05F3F71F04795880F97FB991F61F0B4
:1006F0009F3F79F087950895121613061406551F2B
:10070000F2CF4695F1DF08C0161617061806991F96
:10071000F1CF86957105610508940895E894BB278B
:1007200066277727CB0197F908950E94200308F4E4
:100730008FEF0895A1E21A2EAA1BBB1BFD010DC06D
:10074000AA1FBB1FEE1FFF1FA217B307E407F50781
:1007500020F0A21BB30BE40BF50B661F771F881F5D
:10076000991F1A9469F760957095809590959B01F3
:10077000AC01BD01CF010895EE0FFF1F0590F4916C
:08078000E02D0994F894FFCF6D
:00000001FF
