:1000000029C000002FC000002DC000002BC0000040
:1000100029C0000027C0000025C0000023C0000048
:1000200021C000001FC000001DC000001BC0000058
:1000300019C0000017C0000015C0000013C0000068
:1000400011C000000FC000000DC000000BC0000078
:1000500009C0000011241FBECFE5D8E0DEBFCDBF30
:1000600011D039C0CDCF22E380E090E0FC01319780
:10007000F1F7FC013197F1F7FC013197F1F72150CD
:10008000A9F708958FB5826A8FBD8EB58B618EBD3D
:1000900087E893E197BD86BD81B3806381BB0F2E56
:1000A000F1E6CF2ED12CF02D0F2EFCE3EF2EFF2406
:1000B000F394F02D09EA11E0C7E1D2E0DBBCCABC41
:1000C000D2DFFBBCEABCCFDF1BBD0ABDCCDFDBBD92
:0A00D000CABDC9DFF3CFF894FFCFDB
:00000001FF
