S00C0000756172742E737265635C
S11300000C942A000C9434000C9434000C943400A6
S11300100C9434000C9434000C9434000C9434008C
S11300200C9434000C9434000C9434000C9434007C
S11300300C9434000C9434000C9434000C9434006C
S11300400C9434000C9434000C9434000C9434005C
S11300500C94340011241FBECFE5D8E0DEBFCDBF21
S11300600E9436000C9465000C9400008FE08ABB5B
S113007035E02AE099E086E03BBB4FE35DE063E0D6
S1130080415050406040E1F700C000002BBB4FE3FB
S11300905DE063E0415050406040E1F700C0000083
S11300A09BBB4FE35DE063E0415050406040E1F7AB
S11300B000C000008BBB4FE35DE063E04150504063
S11100C06040E1F700C00000D7CFF894FFCFF6
S9030000FC
