S00C0000756172742E737265635C
S11300000C942A000C9434000C9434000C943400A6
S11300100C9434000C9434000C9434000C9434008C
S11300200C9434000C9434000C9434000C9434007C
S11300300C9434000C9434000C9434000C9434006C
S11300400C9434000C9434000C9434000C9434005C
S11300500C94340011241FBECFE5D8E0DEBFCDBF21
S11300600E9436000C945C000C9400008FE08ABB64
S113007087E689B910BC88E18AB980B5866080BDFD
S113008049E03AE025E096E05F9BFECF8CB18434F2
S113009061F018F4813459F00CC0833521F08735B0
S11300A041F42BBB07C03BBB05C04BBB03C09BBB90
S10F00B001C01BBA1CB8E8CFF894FFCFC5
S9030000FC
